:0900000002028A5388DF2280FE0F
:10000B0002000EC0E0C0F0C083C082C0D075D0002B
:10001B00C000C001C002C003C004C005C006C007B9
:10002B00751600751500751400751300120402EF98
:10003B00604BE51A2401F51AE43519F519E4351866
:10004B00F518E43517F517E47F64FEFDFCAB1AAA2F
:10005B0019A918A817D3120134400C751A00751979
:10006B0000751800751700E51A5401FFE4FEFCEF4C
:10007B0060047DFF8002E4FD7F011203B5120003D3
:10008B00D007D006D005D004D003D002D001D000C9
:0B009B00D0D0D082D083D0F0D0E03273
:1000B300020316BB010689828A83E0225002E722EB
:1000C300BBFE02E32289828A83E49322BB010CE50F
:1000D3008229F582E5833AF583E0225006E92582F9
:1000E300F8E622BBFE06E92582F8E222E58229F53D
:1000F30082E5833AF583E49322BB0110E58229F577
:1001030082E5833AF583E0F5F0A3E0225009E9257F
:1001130082F886F008E622BBFE0AE92582F8E2F5BA
:10012300F008E222E5832AF583E993F5F0A3E99346
:1001330022EB9FF5F0EA9E42F0E99D42F0E89C45F0
:10014300F022E8600FECC313FCED13FDEE13FEEF9A
:1001530013FFD8F122BB010DE58229F582E5833A2D
:10016300F5830202625007E92582F8020256BBFEBC
:1001730007E92582F802026EE58229F582E5833AD2
:10018300F58302027A75F008758200EF2FFFEE33D4
:10019300FECD33CDCC33CCC58233C5829BED9AECF7
:1001A30099E58298400CF582EE9BFEED9AFDEC9961
:1001B300FC0FD5F0D6E4CEFBE4CDFAE4CCF9A8826B
:1001C30022B800C1B90059BA002DEC8BF084CFCE10
:1001D300CDFCE5F0CBF97818EF2FFFEE33FEED33CE
:1001E300FDEC33FCEB33FB10D703994004EB99FB95
:1001F3000FD8E5E4F9FA227818EF2FFFEE33FEED7E
:1002030033FDEC33FCC933C910D7059BE99A40078A
:10021300EC9BFCE99AF90FD8E0E4C9FAE4CCFB22A1
:1002230075F010EF2FFFEE33FEED33FDCC33CCC86A
:1002330033C810D7079BEC9AE899400AED9BFDEC75
:100243009AFCE899F80FD5F0DAE4CDFBE4CCFAE4B4
:10025300C8F922E6FC08E6FD08E6FE08E6FF22E010
:10026300FCA3E0FDA3E0FEA3E0FF22E2FC08E2FD25
:1002730008E2FE08E2FF22E493FC740193FD74029A
:1002830093FE740393FF22787FE4F6D8FD75811BF8
:100293000202D1020007E493A3F8E493A34003F618
:1002A3008001F208DFF48029E493A3F85407240CB7
:1002B300C8C333C4540F4420C8834004F456800198
:1002C30046F6DFE4800B010204081020408090030F
:1002D300CDE47E019360BCA3FF543F30E509541F76
:1002E300FEE493A360010ECF54C025E060A840B89C
:1002F300E493A3FAE493A3F8E493A3C8C582C8CA1A
:10030300C583CAF0A3C8C582C8CAC583CADFE9DEEC
:10031300E780BEC0E0C0F0C083C082C0D075D0000B
:10032300C000C001C002C003C004C005C006C007AE
:100333007511007512007F801203E4EF60157F8052
:100343001203F3EF700D7F401203F3EF70057F107C
:100353001203F3D007D006D005D004D003D002D0C7
:1003630001D000D0D0D082D083D0F0D0E032C2D53B
:10037300E830E70FB2D5E4C39BFBE49AFAE499F9BA
:10038300E498F8EC30E717B2D51203A71201C4E4DE
:10039300C39BFBE49AFAE499F9E498F88003120109
:1003A300C430D50DE4C39FFFE49EFEE49DFDE49CB1
:1003B300FC22EF70038D8022BF01038D9022BF02C8
:1003C300038DA022BF03028DB0220417000000009A
:1003D300011B00040D0000000005080102040810C1
:1003E30000E4FEE5B25F60030E8002E4FEAF062286
:1003F300E4FEE5ED5F60030E8002E4FEAF0622E457
:0D040300FFE588542060030F8002E4FF2213
:00000001FF
