:1000000002000E12045A1203DF80FE020311787FF1
:10001000E4F6D8FD75811E020055020003E493A3A7
:10002000F8E493A34003F68001F208DFF48029E4AA
:1000300093A3F85407240CC8C333C4540F4420C8F6
:10004000834004F456800146F6DFE4800B0102048D
:100050000810204080900405E47E019360BCA3FF5B
:10006000543F30E509541FFEE493A360010ECF54C2
:10007000C025E060A840B8E493A3FAE493A3F8E4B1
:1000800093A3C8C582C8CAC583CAF0A3C8C582C81D
:10009000CAC583CADFE9DEE780BE53B8FDEF25E0BD
:1000A00042B8ED600443A8022253A8FD225388DF22
:0100B000222D
:1000B3000202B6BB010689828A83E0225002E7224C
:1000C300BBFE02E32289828A83E49322BB010CE50F
:1000D3008229F582E5833AF583E0225006E92582F9
:1000E300F8E622BBFE06E92582F8E222E58229F53D
:1000F30082E5833AF583E49322E8600FECC313FCB3
:10010300ED13FDEE13FEEF13FFD8F122BB010DE556
:100113008229F582E5833AF5830202195007E9251E
:1001230082F802020DBBFE07E92582F8020225E5EB
:100133008229F582E5833AF58302023175F0087569
:100143008200EF2FFFEE33FECD33CDCC33CCC5820F
:1001530033C5829BED9AEC99E58298400CF582EECB
:100163009BFEED9AFDEC99FC0FD5F0D6E4CEFBE4B3
:10017300CDFAE4CCF9A88222B800C1B90059BA007B
:100183002DEC8BF084CFCECDFCE5F0CBF97818EFD6
:100193002FFFEE33FEED33FDEC33FCEB33FB10D7D7
:1001A30003994004EB99FB0FD8E5E4F9FA22781898
:1001B300EF2FFFEE33FEED33FDEC33FCC933C910F3
:1001C300D7059BE99A4007EC9BFCE99AF90FD8E025
:1001D300E4C9FAE4CCFB2275F010EF2FFFEE33FEF7
:1001E300ED33FDCC33CCC833C810D7079BEC9AE86A
:1001F30099400AED9BFDEC9AFCE899F80FD5F0DAEB
:10020300E4CDFBE4CCFAE4C8F922E6FC08E6FD08F9
:10021300E6FE08E6FF22E0FCA3E0FDA3E0FEA3E088
:10022300FF22E2FC08E2FD08E2FE08E2FF22E4937B
:10023300FC740193FD740293FE740393FF225389AC
:10024300F8538EF79000011200CFFF1200B625E09D
:1002530025E04F42899000021200CFFE333333541E
:10026300F8428EEF701A90000312010F7805120006
:10027300FC8F8C90000312010FEF541FFF8F8A2213
:100283009000011200CFB4011690000312010F7801
:10029300081200FC8F8C90000312010F8F8A2290AA
:1002A30000011200CFB4020A90000312010F8F8CD9
:1002B3008F8A22C0E0C0F0C083C082C0D075D00056
:1002C300C000C001C002C003C004C005C006C0070F
:1002D300750F007510007F80120416EF60157F8084
:1002E300120425EF700D7F40120425EF70057F1077
:1002F300120425D007D006D005D004D003D002D0F5
:1003030001D000D0D0D082D083D0F0D0E032C0E092
:10031300C0F0C083C082C0D075D000C000C001C08F
:1003230002C003C004C005C006C0077514007513DE
:1003330000751200751100120434EF600C120442B0
:10034300E48F148E13F512F5111200ADD007D00609
:10035300D005D004D003D002D001D000D0D0D082B9
:10036300D083D0F0D0E032C2D5E830E70FB2D5E485
:10037300C39BFBE49AFAE499F9E498F8EC30E717A5
:10038300B2D51203A012017BE4C39BFBE49AFAE407
:1003930099F9E498F8800312017B30D50DE4C39FEB
:1003A300FFE49EFEE49DFDE49CFC22AD07AC06E465
:1003B300FFFEED30E00280FEECC313ED13F58FAECC
:1003C30004AF05AB07AA06E4F9F8FF7E247DF4FC2D
:1003D30012036A8F1D8E1C8D1B8C1A22E4F508757F
:1003E3000902750A01750EFAF50DF50CF50BFB7A8A
:1003F3000079081202417D017F0112009A7F0102F8
:10040300044F011E00041A00000000051501020438
:10041300081000E4FEE5B25F60030E8002E4FEAF65
:100423000622E4FEE5ED5F60030E8002E4FEAF0604
:1004330022E4FFE588542060030F8002E4FF22AE2C
:100443008CAF8AEFFDAF06EFFEAF0522EF600443EA
:0E0453008810225388EF227F107E000203AE35
:00000001FF
