:0A000000020AC3EFF452C9223232A3
:10000B000209A4EF6003D2AF22C2AF2275C800224F
:03001B00020BD7FE
:10002B00020B4FC2D5E830E70FB2D5E4C39BFBE41C
:10003B009AFAE499F9E498F8EC30E717B2D5120084
:10004B00641208DEE4C39BFBE49AFAE499F9E498A2
:10005B00F880031208DE30D50DE4C39FFFE49EFE4B
:07006B00E49DFDE49CFC2272
:03007B0002000878
:10008300020009042E0000000004320000000001F9
:100093003600042A000000000525010204081000B0
:0F00A300E4FEE5B25F60030E8002E4FEAF0622CA
:1000B300020D2BEF600302024C1207D07012900066
:1000C300081207E92400FDE434F08D82F583E4F09F
:1000D3009000011207E9FE70099000081207E9F485
:1000E300529AEEB401089000081207E9429A900070
:1000F300021207E9FEB4011890F008C083C082E041
:10010300FD9000081207E9F4FCED5CD082D083F087
:10011300EE701790F008C083C082E0FE90000812D2
:1001230007E9FDEE4DD082D083F09000031207E97A
:10013300FE701890F009C083C082E0FD90000812A1
:1001430007E9F4FCED5CD082D083F0EEB4011790A4
:10015300F009C083C082E0FE9000081207E9FDEEBB
:100163004DD082D083F09000041207E9FE701890FE
:10017300F00AC083C082E0FD9000081207E9F4FC96
:10018300ED5CD082D083F0EEB4011790F00AC08307
:10019300C082E0FE9000081207E9FDEE4DD082D048
:1001A30083F09000051207E9FE701890F00BC083EE
:1001B300C082E0FD9000081207E9F4FCED5CD082F8
:1001C300D083F0EEB4011790F00BC083C082E0FE41
:1001D3009000081207E9FDEE4DD082D083F0900025
:1001E300061207E9FE701890F00CC083C082E0FD90
:1001F3009000081207E9F4FCED5CD082D083F0EEA6
:10020300B4011790F00CC083C082E0FE9000081286
:1002130007E9FDEE4DD082D083F09000071207E985
:10022300FE701890F00DC083C082E0FD90000812AC
:1002330007E9F4FCED5CD082D083F0EE6401600347
:100243000207CF90F00D020618EF64016003020469
:10025300831207D070129000081207E92410FDE4FE
:1002630034F08D82F583E4F09000011207E9FE700B
:10027300159000081207E9FD7401A805088002C360
:1002830033D8FCF452A1EEB401149000081207E92C
:10029300FE7401A806088002C333D8FC42A1900073
:1002A300021207E9FEB4012290F018C083C082E075
:1002B300FD9000081207E9FC7401A804088002C33A
:1002C30033D8FCF45DD082D083F0EE702190F01827
:1002D300C083C082E0FE9000081207E9FD7401A804
:1002E30005088002C333D8FC4ED082D083F090003F
:1002F300031207E9FE702290F019C083C082E0FD6B
:100303009000081207E9FC7401A804088002C333B3
:10031300D8FCF45DD082D083F0EEB4012190F019C3
:10032300C083C082E0FE9000081207E9FD7401A8B3
:1003330005088002C333D8FC4ED082D083F09000EE
:10034300041207E9FE702290F01AC083C082E0FD18
:100353009000081207E9FC7401A804088002C33363
:10036300D8FCF45DD082D083F0EEB4012190F01A72
:10037300C083C082E0FE9000081207E9FD7401A863
:1003830005088002C333D8FC4ED082D083F090009E
:10039300051207E9FE702290F01BC083C082E0FDC6
:1003A3009000081207E9FC7401A804088002C33313
:1003B300D8FCF45DD082D083F0EEB4012190F01B21
:1003C300C083C082E0FE9000081207E9FD7401A813
:1003D30005088002C333D8FC4ED082D083F090004E
:1003E300061207E9FE702290F01CC083C082E0FD74
:1003F3009000081207E9FC7401A804088002C333C3
:10040300D8FCF45DD082D083F0EEB4012190F01CCF
:10041300C083C082E0FE9000081207E9FD7401A8C2
:1004230005088002C333D8FC4ED082D083F09000FD
:10043300071207E9FE702290F01DC083C082E0FD21
:100443009000081207E9FC7401A804088002C33372
:10045300D8FCF45DD082D083F0EE64016003020720
:10046300CF90F01DC083C082E0FF9000081207E91F
:10047300FE7401A806088002C333D8FC4F0207CAE2
:10048300EF6402600302062A1207D070129000087C
:100493001207E92420FDE434F08D82F583E4F09023
:1004A30000011207E9FE70099000081207E9F452EF
:1004B300A2EEB401089000081207E942A2900002DC
:1004C3001207E9FEB4011890F028C083C082E0FD52
:1004D3009000081207E9F4FCED5CD082D083F0EEC3
:1004E300701790F028C083C082E0FE9000081207C6
:1004F300E9FDEE4DD082D083F09000031207E9FEB0
:10050300701890F029C083C082E0FD9000081207A4
:10051300E9F4FCED5CD082D083F0EEB4011790F0E7
:1005230029C083C082E0FE9000081207E9FDEE4D6A
:10053300D082D083F09000041207E9FE701890F087
:100543002AC083C082E0FD9000081207E9F4FCEDA5
:100553005CD082D083F0EEB4011790F02AC083C040
:1005630082E0FE9000081207E9FDEE4DD082D083B1
:10057300F09000051207E9FE701890F02BC083C0BD
:1005830082E0FD9000081207E9F4FCED5CD082D014
:1005930083F0EEB4011790F02BC083C082E0FE908D
:1005A30000081207E9FDEE4DD082D083F0900006DB
:1005B3001207E9FE701890F02CC083C082E0FD9012
:1005C30000081207E9F4FCED5CD082D083F0EEB4AE
:1005D300011790F02CC083C082E0FE900008120740
:1005E300E9FDEE4DD082D083F09000071207E9FEBB
:1005F300701890F02DC083C082E0FD9000081207B0
:10060300E9F4FCED5CD082D083F0EE640160030278
:1006130007CF90F02DC083C082E0FF90000812073F
:10062300E9FEEF4E0207CAEF640360030207CF122D
:1006330007D070129000081207E92430FFE434F069
:100643008F82F583E4F09000011207E9FF700990AF
:1006530000081207E9F452A3EFB40108900008124E
:1006630007E942A39000021207E9FFB4011890F0D2
:1006730038C083C082E0FE9000081207E9F4FDEE63
:100683005DD082D083F0EF701790F038C083C082C2
:10069300E0FF9000081207E9FEEF4ED082D083F00E
:1006A3009000031207E9FF701890F039C083C082ED
:1006B300E0FE9000081207E9F4FDEE5DD082D083DE
:1006C300F0EFB4011790F039C083C082E0FF9000CF
:1006D300081207E9FEEF4ED082D083F09000041297
:1006E30007E9FF701890F03AC083C082E0FE9000E3
:1006F300081207E9F4FDEE5DD082D083F0EFB40178
:100703001790F03AC083C082E0FF9000081207E917
:10071300FEEF4ED082D083F09000051207E9FF7000
:100723001890F03BC083C082E0FE9000081207E9F6
:10073300F4FDEE5DD082D083F0EFB4011790F03B6F
:10074300C083C082E0FF9000081207E9FEEF4ED09D
:1007530082D083F09000061207E9FF701890F03CF6
:10076300C083C082E0FE9000081207E9F4FDEE5D4D
:10077300D082D083F0EFB4011790F03CC083C082E5
:10078300E0FF9000081207E9FEEF4ED082D083F01D
:100793009000071207E9FF701890F03DC083C082F4
:1007A300E0FE9000081207E9F4FDEE5DD082D083ED
:1007B300F0EFB4011790F03DC083C082E0FF9000DA
:1007C300081207E9FEEF4ED082D083F022BB010668
:1007D30089828A83E0225002E722BBFE02E3228958
:1007E300828A83E49322BB010CE58229F582E583A7
:1007F3003AF583E0225006E92582F8E622BBFE069D
:10080300E92582F8E222E58229F582E5833AF58338
:10081300E49322BB0110E58229F582E5833AF5834F
:10082300E0F5F0A3E0225009E92582F886F008E616
:1008330022BBFE0AE92582F8E2F5F008E222E5830D
:100843002AF583E993F5F0A3E99322EB9FF5F0EA08
:100853009E42F0E99D42F0E89C45F022E8600FECEF
:10086300C313FCED13FDEE13FEEF13FFD8F122BB10
:10087300010DE58229F582E5833AF58302097C506F
:1008830007E92582F8020970BBFE07E92582F80211
:100893000988E58229F582E5833AF583020994758F
:1008A300F008758200EF2FFFEE33FECD33CDCC334E
:1008B300CCC58233C5829BED9AEC99E58298400CB6
:1008C300F582EE9BFEED9AFDEC99FC0FD5F0D6E494
:1008D300CEFBE4CDFAE4CCF9A88222B800C1B9007A
:1008E30059BA002DEC8BF084CFCECDFCE5F0CBF9DB
:1008F3007818EF2FFFEE33FEED33FDEC33FCEB33D3
:10090300FB10D703994004EB99FB0FD8E5E4F9FA00
:10091300227818EF2FFFEE33FEED33FDEC33FCC9E5
:1009230033C910D7059BE99A4007EC9BFCE99AF978
:100933000FD8E0E4C9FAE4CCFB2275F010EF2FFFE7
:10094300EE33FEED33FDCC33CCC833C810D7079B51
:10095300EC9AE899400AED9BFDEC9AFCE899F80FB4
:10096300D5F0DAE4CDFBE4CCFAE4C8F922E6FC08DE
:10097300E6FD08E6FE08E6FF22E0FCA3E0FDA3E0B7
:10098300FEA3E0FF22E2FC08E2FD08E2FE08E2FF2C
:1009930022E493FC740193FD740293FE740393FFAA
:1009A30022C0E0C0F0C083C082C0D075D000C000B8
:1009B300C001C002C003C004C005C006C00775243F
:1009C30000752300752200752100E5312401F531FE
:1009D300E43530F530E4352FF52FE4352EF52EE4EC
:1009E3007F64FEFDFCAB31AA30A92FA82ED31208D9
:1009F3004E400C753100753000752F00752E00E5E3
:100A0300315401FFE4FEFCEF60047B018002E4FB50
:100A13007D057F01120A35D007D006D005D004D05A
:100A230003D002D001D000D0D0D082D083D0F0D078
:100A3300E032EF7020EB600E7401A805088002C35A
:100A430033D8FC4280227401A805088002C333D83E
:100A5300FCF4528022BF0120EB600E7401A805084C
:100A63008002C333D8FC4290227401A80508800297
:100A7300C333D8FCF4529022BF0220EB600E740102
:100A8300A805088002C333D8FC42A0227401A8053C
:100A9300088002C333D8FCF452A022BF0321EB60C9
:100AA3000E7401A805088002C333D8FC42B022AFFC
:100AB300057401A807088002C333D8FCF452B0229E
:100AC300787FE4F6D8FD758136020B0A020E7EE4C8
:100AD30093A3F8E493A34003F68001F208DFF480C4
:100AE30029E493A3F85407240CC8C333C4540F4414
:100AF30020C8834004F456800146F6DFE4800B01EE
:100B030002040810204080900086E47E019360BCBC
:100B1300A3FF543F30E509541FFEE493A360010E85
:100B2300CF54C025E060A840B8E493A3FAE493A3AC
:100B3300F8E493A3C8C582C8CAC583CAF0A3C8C5CD
:100B430082C8CAC583CADFE9DEE780BEC0E0C0F061
:100B5300C083C082C0D075D000C000C001C002C035
:100B630003C004C005C006C007B2957F80120E6F94
:100B7300EF60057F801200037F40120E6FEF600568
:100B83007F401200037F08120E6FEF60057F08128B
:100B930000037F04120E6FEF60057F041200037FD2
:100BA30002120E6FEF60057F021200037F01120E27
:100BB3006FEF60057F01120003D007D006D005D088
:100BC30004D003D002D001D000D0D0D082D083D0C3
:100BD300F0D0E032C0E0C0F0C083C082C0D075D096
:100BE30000C000C001C002C003C004C005C006C0ED
:100BF30007E5352401F535E43534F534E43533F5CB
:100C030033E43532F532E47F64FEFDFCAB35AA34C0
:100C1300A933A832D312084E400C75350075340041
:100C2300753300753200E5355401FFE4FEFCEF60D7
:100C3300047B018002E4FB7D067F01120A35D007A5
:100C4300D006D005D004D003D002D001D000D0D03C
:100C5300D082D083D0F0D0E032751101E4F5127563
:100C63001302F514F5151200177B007A007911129F
:100C73000DC77D037F18120D867508017510047565
:100C83000901750A01E4F50B750C01750D01750E6B
:100C930001750F01FB7A0079087F021200B6751601
:100CA30001E4F517F518751908751A80F51BFB7A19
:100CB300007916120CC77B017D017FA2120E2E7FD5
:100CC3000102000E53C8BB9000011207E9C433337D
:100CD30054C0FF9000021207E925E025E04F42C807
:100CE3001207D014601814602314602E2403703785
:100CF300900004120816AEF0F5CAEEF5CB22900070
:100D030004120816AEF0F5C2EEF5C32290000412E9
:100D13000816AEF0F5C4EEF5C522900004120816CD
:100D2300AEF0F5C6EEF5C722C0E0C0F0C083C082C6
:100D3300C0D075D000C000C001C002C003C004C051
:100D430005C006C007751F007520007F801200A331
:100D5300EF60157F80120E60EF700D7F40120E6002
:100D6300EF70057F10120E60D007D006D005D004B7
:100D7300D003D002D001D000D0D0D082D083D0F025
:100D8300D0E032EFC394085005EF24008028EFC36E
:100D930094125008C3EF940A2410801AEFC3941CD2
:100DA3005008C3EF94142420800CEFC394265013EF
:100DB300C3EF941E2430FBE434F08B82F583E4F01C
:100DC300E04DF02275C8009000011207E9C43333E7
:100DD300335480FF1207D04FFF9000021207E9330C
:100DE300333354F84F42C8900003120816FDACF099
:100DF300ECF5CDAF05EFF5CC22E4F50875090175E7
:100E03000A01F50B750C01750D01750E01750F01C6
:100E1300751005FB7A0079087F011200B67510067C
:100E23007B007A0079087F010200B653A8DF53B82C
:100E3300BFED42B875CF00EF42CFEB600443A8206B
:100E43002243A8DF22EF70038D8022BF01038D9020
:100E530022BF02038DA022BF03028DB022E4FEE570
:100E6300ED5F60030E8002E4FEAF0622E4FEE5C9F7
:100E73005F60030E8002E4FEAF0622120DFCE4FD68
:0A0E83007F01120E48120C5C80FE85
:00000001FF
